{
  "_format": "hh-sol-artifact-1",
  "contractName": "WalletMultisig",
  "sourceName": "src/Contracts/Wallet.sol",
  "abi": [
    {
      "inputs": [
        {
          "internalType": "address[]",
          "name": "_owners",
          "type": "address[]"
        },
        {
          "internalType": "uint256",
          "name": "_requiredApprovals",
          "type": "uint256"
        }
      ],
      "stateMutability": "nonpayable",
      "type": "constructor"
    },
    {
      "anonymous": false,
      "inputs": [
        {
          "indexed": true,
          "internalType": "address",
          "name": "sender",
          "type": "address"
        },
        {
          "indexed": false,
          "internalType": "uint256",
          "name": "amount",
          "type": "uint256"
        }
      ],
      "name": "Deposit",
      "type": "event"
    },
    {
      "anonymous": false,
      "inputs": [
        {
          "indexed": true,
          "internalType": "uint256",
          "name": "transactionId",
          "type": "uint256"
        },
        {
          "indexed": true,
          "internalType": "address",
          "name": "owner",
          "type": "address"
        }
      ],
      "name": "TransactionApproved",
      "type": "event"
    },
    {
      "anonymous": false,
      "inputs": [
        {
          "indexed": true,
          "internalType": "uint256",
          "name": "transactionId",
          "type": "uint256"
        },
        {
          "indexed": true,
          "internalType": "address",
          "name": "to",
          "type": "address"
        },
        {
          "indexed": false,
          "internalType": "uint256",
          "name": "amount",
          "type": "uint256"
        }
      ],
      "name": "TransactionExecuted",
      "type": "event"
    },
    {
      "anonymous": false,
      "inputs": [
        {
          "indexed": true,
          "internalType": "uint256",
          "name": "transactionId",
          "type": "uint256"
        },
        {
          "indexed": true,
          "internalType": "address",
          "name": "to",
          "type": "address"
        },
        {
          "indexed": false,
          "internalType": "uint256",
          "name": "amount",
          "type": "uint256"
        }
      ],
      "name": "TransactionSubmitted",
      "type": "event"
    },
    {
      "inputs": [
        {
          "internalType": "uint256",
          "name": "",
          "type": "uint256"
        },
        {
          "internalType": "address",
          "name": "",
          "type": "address"
        }
      ],
      "name": "approvals",
      "outputs": [
        {
          "internalType": "bool",
          "name": "",
          "type": "bool"
        }
      ],
      "stateMutability": "view",
      "type": "function"
    },
    {
      "inputs": [
        {
          "internalType": "uint256",
          "name": "_transactionId",
          "type": "uint256"
        }
      ],
      "name": "approveTransaction",
      "outputs": [],
      "stateMutability": "nonpayable",
      "type": "function"
    },
    {
      "inputs": [],
      "name": "deposit",
      "outputs": [],
      "stateMutability": "payable",
      "type": "function"
    },
    {
      "inputs": [
        {
          "internalType": "uint256",
          "name": "_transactionId",
          "type": "uint256"
        }
      ],
      "name": "executeTransaction",
      "outputs": [],
      "stateMutability": "nonpayable",
      "type": "function"
    },
    {
      "inputs": [],
      "name": "getTransactions",
      "outputs": [
        {
          "components": [
            {
              "internalType": "address",
              "name": "to",
              "type": "address"
            },
            {
              "internalType": "uint256",
              "name": "amount",
              "type": "uint256"
            },
            {
              "internalType": "uint256",
              "name": "approvalCount",
              "type": "uint256"
            },
            {
              "internalType": "bool",
              "name": "executed",
              "type": "bool"
            }
          ],
          "internalType": "struct WalletMultisig.Transaction[]",
          "name": "",
          "type": "tuple[]"
        }
      ],
      "stateMutability": "view",
      "type": "function"
    },
    {
      "inputs": [
        {
          "internalType": "address",
          "name": "",
          "type": "address"
        }
      ],
      "name": "isOwner",
      "outputs": [
        {
          "internalType": "bool",
          "name": "",
          "type": "bool"
        }
      ],
      "stateMutability": "view",
      "type": "function"
    },
    {
      "inputs": [
        {
          "internalType": "uint256",
          "name": "",
          "type": "uint256"
        }
      ],
      "name": "owners",
      "outputs": [
        {
          "internalType": "address",
          "name": "",
          "type": "address"
        }
      ],
      "stateMutability": "view",
      "type": "function"
    },
    {
      "inputs": [],
      "name": "requiredApprovals",
      "outputs": [
        {
          "internalType": "uint256",
          "name": "",
          "type": "uint256"
        }
      ],
      "stateMutability": "view",
      "type": "function"
    },
    {
      "inputs": [
        {
          "internalType": "address",
          "name": "_to",
          "type": "address"
        },
        {
          "internalType": "uint256",
          "name": "_amount",
          "type": "uint256"
        }
      ],
      "name": "submitTransaction",
      "outputs": [],
      "stateMutability": "nonpayable",
      "type": "function"
    },
    {
      "inputs": [
        {
          "internalType": "uint256",
          "name": "",
          "type": "uint256"
        }
      ],
      "name": "transactions",
      "outputs": [
        {
          "internalType": "address",
          "name": "to",
          "type": "address"
        },
        {
          "internalType": "uint256",
          "name": "amount",
          "type": "uint256"
        },
        {
          "internalType": "uint256",
          "name": "approvalCount",
          "type": "uint256"
        },
        {
          "internalType": "bool",
          "name": "executed",
          "type": "bool"
        }
      ],
      "stateMutability": "view",
      "type": "function"
    }
  ],
  "bytecode": "0x60806040523480156200001157600080fd5b5060405162001c3f38038062001c3f8339818101604052810190620000379190620004c8565b60008251116200007e576040517f08c379a000000000000000000000000000000000000000000000000000000000815260040162000075906200058f565b60405180910390fd5b60008111801562000090575081518111155b620000d2576040517f08c379a0000000000000000000000000000000000000000000000000000000008152600401620000c99062000601565b60405180910390fd5b60005b82518110156200028f5760026000848381518110620000f957620000f862000623565b5b602002602001015173ffffffffffffffffffffffffffffffffffffffff1673ffffffffffffffffffffffffffffffffffffffff16815260200190815260200160002060009054906101000a900460ff16156200018c576040517f08c379a00000000000000000000000000000000000000000000000000000000081526004016200018390620006a2565b60405180910390fd5b600160026000858481518110620001a857620001a762000623565b5b602002602001015173ffffffffffffffffffffffffffffffffffffffff1673ffffffffffffffffffffffffffffffffffffffff16815260200190815260200160002060006101000a81548160ff021916908315150217905550600083828151811062000219576200021862000623565b5b60200260200101519080600181540180825580915050600190039060005260206000200160009091909190916101000a81548173ffffffffffffffffffffffffffffffffffffffff021916908373ffffffffffffffffffffffffffffffffffffffff1602179055508080600101915050620000d5565b50806001819055505050620006c4565b6000604051905090565b600080fd5b600080fd5b600080fd5b6000601f19601f8301169050919050565b7f4e487b7100000000000000000000000000000000000000000000000000000000600052604160045260246000fd5b6200030382620002b8565b810181811067ffffffffffffffff82111715620003255762000324620002c9565b5b80604052505050565b60006200033a6200029f565b9050620003488282620002f8565b919050565b600067ffffffffffffffff8211156200036b576200036a620002c9565b5b602082029050602081019050919050565b600080fd5b600073ffffffffffffffffffffffffffffffffffffffff82169050919050565b6000620003ae8262000381565b9050919050565b620003c081620003a1565b8114620003cc57600080fd5b50565b600081519050620003e081620003b5565b92915050565b6000620003fd620003f7846200034d565b6200032e565b905080838252602082019050602084028301858111156200042357620004226200037c565b5b835b818110156200045057806200043b8882620003cf565b84526020840193505060208101905062000425565b5050509392505050565b600082601f830112620004725762000471620002b3565b5b815162000484848260208601620003e6565b91505092915050565b6000819050919050565b620004a2816200048d565b8114620004ae57600080fd5b50565b600081519050620004c28162000497565b92915050565b60008060408385031215620004e257620004e1620002a9565b5b600083015167ffffffffffffffff811115620005035762000502620002ae565b5b62000511858286016200045a565b92505060206200052485828601620004b1565b9150509250929050565b600082825260208201905092915050565b7f44656265732074656e6572206f776e6572730000000000000000000000000000600082015250565b6000620005776012836200052e565b915062000584826200053f565b602082019050919050565b60006020820190508181036000830152620005aa8162000568565b9050919050565b7f4e756d65726f20696e76616c69646f206465206170726f626163696f6e657300600082015250565b6000620005e9601f836200052e565b9150620005f682620005b1565b602082019050919050565b600060208201905081810360008301526200061c81620005da565b9050919050565b7f4e487b7100000000000000000000000000000000000000000000000000000000600052603260045260246000fd5b7f4f776e6572206475706c696361646f0000000000000000000000000000000000600082015250565b60006200068a600f836200052e565b9150620006978262000652565b602082019050919050565b60006020820190508181036000830152620006bd816200067b565b9050919050565b61156b80620006d46000396000f3fe6080604052600436106100915760003560e01c806399c1aadc1161005957806399c1aadc1461018d5780639ace38c2146101b8578063ab2850da146101f8578063d0e30db014610235578063ee22610b1461023f57610091565b8063025e7c27146100965780631d43b653146100d3578063242232d1146100fc5780632f54bf6e1461012557806383920e9014610162575b600080fd5b3480156100a257600080fd5b506100bd60048036038101906100b89190610d38565b610268565b6040516100ca9190610da6565b60405180910390f35b3480156100df57600080fd5b506100fa60048036038101906100f59190610ded565b6102a7565b005b34801561010857600080fd5b50610123600480360381019061011e9190610d38565b61052c565b005b34801561013157600080fd5b5061014c60048036038101906101479190610e2d565b6107e2565b6040516101599190610e75565b60405180910390f35b34801561016e57600080fd5b50610177610802565b6040516101849190610fc1565b60405180910390f35b34801561019957600080fd5b506101a26108e6565b6040516101af9190610ff2565b60405180910390f35b3480156101c457600080fd5b506101df60048036038101906101da9190610d38565b6108ec565b6040516101ef949392919061100d565b60405180910390f35b34801561020457600080fd5b5061021f600480360381019061021a9190611052565b610959565b60405161022c9190610e75565b60405180910390f35b61023d610988565b005b34801561024b57600080fd5b5061026660048036038101906102619190610d38565b610a1b565b005b6000818154811061027857600080fd5b906000526020600020016000915054906101000a900473ffffffffffffffffffffffffffffffffffffffff1681565b600260003373ffffffffffffffffffffffffffffffffffffffff1673ffffffffffffffffffffffffffffffffffffffff16815260200190815260200160002060009054906101000a900460ff16610333576040517f08c379a000000000000000000000000000000000000000000000000000000000815260040161032a906110ef565b60405180910390fd5b600073ffffffffffffffffffffffffffffffffffffffff168273ffffffffffffffffffffffffffffffffffffffff16036103a2576040517f08c379a00000000000000000000000000000000000000000000000000000000081526004016103999061115b565b60405180910390fd5b600081116103e5576040517f08c379a00000000000000000000000000000000000000000000000000000000081526004016103dc906111c7565b60405180910390fd5b600360405180608001604052808473ffffffffffffffffffffffffffffffffffffffff1681526020018381526020016000815260200160001515815250908060018154018082558091505060019003906000526020600020906004020160009091909190915060008201518160000160006101000a81548173ffffffffffffffffffffffffffffffffffffffff021916908373ffffffffffffffffffffffffffffffffffffffff160217905550602082015181600101556040820151816002015560608201518160030160006101000a81548160ff02191690831515021790555050508173ffffffffffffffffffffffffffffffffffffffff1660016003805490506104f19190611216565b7f6974e8be5912ae917b788db2884a51e71cbe0f0979af347e6a32d07d52ef82a3836040516105209190610ff2565b60405180910390a35050565b600260003373ffffffffffffffffffffffffffffffffffffffff1673ffffffffffffffffffffffffffffffffffffffff16815260200190815260200160002060009054906101000a900460ff166105b8576040517f08c379a00000000000000000000000000000000000000000000000000000000081526004016105af906110ef565b60405180910390fd5b60038054905081106105ff576040517f08c379a00000000000000000000000000000000000000000000000000000000081526004016105f690611296565b60405180910390fd5b600060038281548110610615576106146112b6565b5b906000526020600020906004020190508060030160009054906101000a900460ff1615610677576040517f08c379a000000000000000000000000000000000000000000000000000000000815260040161066e90611331565b60405180910390fd5b6004600083815260200190815260200160002060003373ffffffffffffffffffffffffffffffffffffffff1673ffffffffffffffffffffffffffffffffffffffff16815260200190815260200160002060009054906101000a900460ff1615610715576040517f08c379a000000000000000000000000000000000000000000000000000000000815260040161070c9061139d565b60405180910390fd5b60016004600084815260200190815260200160002060003373ffffffffffffffffffffffffffffffffffffffff1673ffffffffffffffffffffffffffffffffffffffff16815260200190815260200160002060006101000a81548160ff021916908315150217905550600181600201600082825461079391906113bd565b925050819055503373ffffffffffffffffffffffffffffffffffffffff16827f924813d717e221b5f46dcd8a56da1679e4612584ab3237d55e5faabf6f6a307960405160405180910390a35050565b60026020528060005260406000206000915054906101000a900460ff1681565b60606003805480602002602001604051908101604052809291908181526020016000905b828210156108dd57838290600052602060002090600402016040518060800160405290816000820160009054906101000a900473ffffffffffffffffffffffffffffffffffffffff1673ffffffffffffffffffffffffffffffffffffffff1673ffffffffffffffffffffffffffffffffffffffff16815260200160018201548152602001600282015481526020016003820160009054906101000a900460ff16151515158152505081526020019060010190610826565b50505050905090565b60015481565b600381815481106108fc57600080fd5b90600052602060002090600402016000915090508060000160009054906101000a900473ffffffffffffffffffffffffffffffffffffffff16908060010154908060020154908060030160009054906101000a900460ff16905084565b60046020528160005260406000206020528060005260406000206000915091509054906101000a900460ff1681565b600034116109cb576040517f08c379a00000000000000000000000000000000000000000000000000000000081526004016109c29061143d565b60405180910390fd5b3373ffffffffffffffffffffffffffffffffffffffff167fe1fffcc4923d04b559f4d29a8bfc6cda04eb5b0d3c460751c2402c5c5cc9109c34604051610a119190610ff2565b60405180910390a2565b600260003373ffffffffffffffffffffffffffffffffffffffff1673ffffffffffffffffffffffffffffffffffffffff16815260200190815260200160002060009054906101000a900460ff16610aa7576040517f08c379a0000000000000000000000000000000000000000000000000000000008152600401610a9e906110ef565b60405180910390fd5b6003805490508110610aee576040517f08c379a0000000000000000000000000000000000000000000000000000000008152600401610ae590611296565b60405180910390fd5b600060038281548110610b0457610b036112b6565b5b9060005260206000209060040201905060015481600201541015610b5d576040517f08c379a0000000000000000000000000000000000000000000000000000000008152600401610b54906114a9565b60405180910390fd5b8060030160009054906101000a900460ff1615610baf576040517f08c379a0000000000000000000000000000000000000000000000000000000008152600401610ba690611331565b60405180910390fd5b8060010154471015610bf6576040517f08c379a0000000000000000000000000000000000000000000000000000000008152600401610bed90611515565b60405180910390fd5b60018160030160006101000a81548160ff0219169083151502179055508060000160009054906101000a900473ffffffffffffffffffffffffffffffffffffffff1673ffffffffffffffffffffffffffffffffffffffff166108fc82600101549081150290604051600060405180830381858888f19350505050158015610c81573d6000803e3d6000fd5b508060000160009054906101000a900473ffffffffffffffffffffffffffffffffffffffff1673ffffffffffffffffffffffffffffffffffffffff16827fda19024f6708ce28e75d9c0ec389fb05a8e5cc9dfe520f61239c10d51a11e59c8360010154604051610cf19190610ff2565b60405180910390a35050565b600080fd5b6000819050919050565b610d1581610d02565b8114610d2057600080fd5b50565b600081359050610d3281610d0c565b92915050565b600060208284031215610d4e57610d4d610cfd565b5b6000610d5c84828501610d23565b91505092915050565b600073ffffffffffffffffffffffffffffffffffffffff82169050919050565b6000610d9082610d65565b9050919050565b610da081610d85565b82525050565b6000602082019050610dbb6000830184610d97565b92915050565b610dca81610d85565b8114610dd557600080fd5b50565b600081359050610de781610dc1565b92915050565b60008060408385031215610e0457610e03610cfd565b5b6000610e1285828601610dd8565b9250506020610e2385828601610d23565b9150509250929050565b600060208284031215610e4357610e42610cfd565b5b6000610e5184828501610dd8565b91505092915050565b60008115159050919050565b610e6f81610e5a565b82525050565b6000602082019050610e8a6000830184610e66565b92915050565b600081519050919050565b600082825260208201905092915050565b6000819050602082019050919050565b610ec581610d85565b82525050565b610ed481610d02565b82525050565b610ee381610e5a565b82525050565b608082016000820151610eff6000850182610ebc565b506020820151610f126020850182610ecb565b506040820151610f256040850182610ecb565b506060820151610f386060850182610eda565b50505050565b6000610f4a8383610ee9565b60808301905092915050565b6000602082019050919050565b6000610f6e82610e90565b610f788185610e9b565b9350610f8383610eac565b8060005b83811015610fb4578151610f9b8882610f3e565b9750610fa683610f56565b925050600181019050610f87565b5085935050505092915050565b60006020820190508181036000830152610fdb8184610f63565b905092915050565b610fec81610d02565b82525050565b60006020820190506110076000830184610fe3565b92915050565b60006080820190506110226000830187610d97565b61102f6020830186610fe3565b61103c6040830185610fe3565b6110496060830184610e66565b95945050505050565b6000806040838503121561106957611068610cfd565b5b600061107785828601610d23565b925050602061108885828601610dd8565b9150509250929050565b600082825260208201905092915050565b7f4e6f20657320756e206f776e6572000000000000000000000000000000000000600082015250565b60006110d9600e83611092565b91506110e4826110a3565b602082019050919050565b60006020820190508181036000830152611108816110cc565b9050919050565b7f446972656363696f6e20696e76616c6964610000000000000000000000000000600082015250565b6000611145601283611092565b91506111508261110f565b602082019050919050565b6000602082019050818103600083015261117481611138565b9050919050565b7f4d6f6e746f206465626520736572206d61796f72206120300000000000000000600082015250565b60006111b1601883611092565b91506111bc8261117b565b602082019050919050565b600060208201905081810360008301526111e0816111a4565b9050919050565b7f4e487b7100000000000000000000000000000000000000000000000000000000600052601160045260246000fd5b600061122182610d02565b915061122c83610d02565b9250828203905081811115611244576112436111e7565b5b92915050565b7f4944206465207472616e73616363696f6e20696e76616c69646f000000000000600082015250565b6000611280601a83611092565b915061128b8261124a565b602082019050919050565b600060208201905081810360008301526112af81611273565b9050919050565b7f4e487b7100000000000000000000000000000000000000000000000000000000600052603260045260246000fd5b7f5472616e73616363696f6e20796120656a656375746164610000000000000000600082015250565b600061131b601883611092565b9150611326826112e5565b602082019050919050565b6000602082019050818103600083015261134a8161130e565b9050919050565b7f5961206170726f62616461000000000000000000000000000000000000000000600082015250565b6000611387600b83611092565b915061139282611351565b602082019050919050565b600060208201905081810360008301526113b68161137a565b9050919050565b60006113c882610d02565b91506113d383610d02565b92508282019050808211156113eb576113ea6111e7565b5b92915050565b7f4465626573206d616e6461722065746865720000000000000000000000000000600082015250565b6000611427601283611092565b9150611432826113f1565b602082019050919050565b600060208201905081810360008301526114568161141a565b9050919050565b7f4e6f20737566696369656e746573206170726f626163696f6e65730000000000600082015250565b6000611493601b83611092565b915061149e8261145d565b602082019050919050565b600060208201905081810360008301526114c281611486565b9050919050565b7f466f6e646f7320696e737566696369656e746573000000000000000000000000600082015250565b60006114ff601483611092565b915061150a826114c9565b602082019050919050565b6000602082019050818103600083015261152e816114f2565b905091905056fea26469706673582212201877b9bac198d3ab9e2fdec266c8674fe94efd906a16913041c790c38673638b64736f6c63430008180033",
  "linkReferences": {},
  "deployedLinkReferences": {}
}