{
  "_format": "hh-sol-artifact-1",
  "contractName": "Sales",
  "sourceName": "src/Contracts/Sales.sol",
  "abi": [
    {
      "anonymous": false,
      "inputs": [
        {
          "indexed": true,
          "internalType": "address",
          "name": "previousOwner",
          "type": "address"
        },
        {
          "indexed": true,
          "internalType": "address",
          "name": "newOwner",
          "type": "address"
        }
      ],
      "name": "OwnershipTransferred",
      "type": "event"
    },
    {
      "anonymous": false,
      "inputs": [
        {
          "indexed": true,
          "internalType": "uint256",
          "name": "saleId",
          "type": "uint256"
        },
        {
          "indexed": false,
          "internalType": "uint256",
          "name": "vehicleId",
          "type": "uint256"
        },
        {
          "indexed": true,
          "internalType": "address",
          "name": "seller",
          "type": "address"
        },
        {
          "indexed": true,
          "internalType": "address",
          "name": "buyer",
          "type": "address"
        },
        {
          "indexed": false,
          "internalType": "uint256",
          "name": "price",
          "type": "uint256"
        }
      ],
      "name": "SaleRegistered",
      "type": "event"
    },
    {
      "inputs": [
        {
          "internalType": "uint256",
          "name": "saleId",
          "type": "uint256"
        }
      ],
      "name": "getSale",
      "outputs": [
        {
          "components": [
            {
              "internalType": "uint256",
              "name": "saleId",
              "type": "uint256"
            },
            {
              "internalType": "uint256",
              "name": "vehicleId",
              "type": "uint256"
            },
            {
              "internalType": "address",
              "name": "seller",
              "type": "address"
            },
            {
              "internalType": "address",
              "name": "buyer",
              "type": "address"
            },
            {
              "internalType": "uint256",
              "name": "price",
              "type": "uint256"
            }
          ],
          "internalType": "struct Sales.Sale",
          "name": "",
          "type": "tuple"
        }
      ],
      "stateMutability": "view",
      "type": "function"
    },
    {
      "inputs": [],
      "name": "owner",
      "outputs": [
        {
          "internalType": "address",
          "name": "",
          "type": "address"
        }
      ],
      "stateMutability": "view",
      "type": "function"
    },
    {
      "inputs": [
        {
          "internalType": "uint256",
          "name": "vehicleId",
          "type": "uint256"
        },
        {
          "internalType": "address",
          "name": "seller",
          "type": "address"
        },
        {
          "internalType": "address",
          "name": "buyer",
          "type": "address"
        },
        {
          "internalType": "uint256",
          "name": "price",
          "type": "uint256"
        }
      ],
      "name": "registerSale",
      "outputs": [
        {
          "internalType": "uint256",
          "name": "",
          "type": "uint256"
        }
      ],
      "stateMutability": "nonpayable",
      "type": "function"
    },
    {
      "inputs": [],
      "name": "renounceOwnership",
      "outputs": [],
      "stateMutability": "nonpayable",
      "type": "function"
    },
    {
      "inputs": [
        {
          "internalType": "uint256",
          "name": "",
          "type": "uint256"
        }
      ],
      "name": "sales",
      "outputs": [
        {
          "internalType": "uint256",
          "name": "saleId",
          "type": "uint256"
        },
        {
          "internalType": "uint256",
          "name": "vehicleId",
          "type": "uint256"
        },
        {
          "internalType": "address",
          "name": "seller",
          "type": "address"
        },
        {
          "internalType": "address",
          "name": "buyer",
          "type": "address"
        },
        {
          "internalType": "uint256",
          "name": "price",
          "type": "uint256"
        }
      ],
      "stateMutability": "view",
      "type": "function"
    },
    {
      "inputs": [
        {
          "internalType": "address",
          "name": "newOwner",
          "type": "address"
        }
      ],
      "name": "transferOwnership",
      "outputs": [],
      "stateMutability": "nonpayable",
      "type": "function"
    }
  ],
  "bytecode": "0x608060405234801561001057600080fd5b5061002d61002261003260201b60201c565b61003a60201b60201c565b6100fe565b600033905090565b60008060009054906101000a900473ffffffffffffffffffffffffffffffffffffffff169050816000806101000a81548173ffffffffffffffffffffffffffffffffffffffff021916908373ffffffffffffffffffffffffffffffffffffffff1602179055508173ffffffffffffffffffffffffffffffffffffffff168173ffffffffffffffffffffffffffffffffffffffff167f8be0079c531659141344cd1fd0a4f28419497f9722a3daafe3b4186f6b6457e060405160405180910390a35050565b610d7b8061010d6000396000f3fe608060405234801561001057600080fd5b50600436106100625760003560e01c8063715018a6146100675780638da5cb5b14610071578063ae3ca9a81461008f578063b5f522f7146100bf578063d8f6d596146100f3578063f2fde38b14610123575b600080fd5b61006f61013f565b005b610079610153565b6040516100869190610842565b60405180910390f35b6100a960048036038101906100a491906108c4565b61017c565b6040516100b6919061093a565b60405180910390f35b6100d960048036038101906100d49190610955565b610448565b6040516100ea959493929190610982565b60405180910390f35b61010d60048036038101906101089190610955565b6104be565b60405161011a9190610a5b565b60405180910390f35b61013d60048036038101906101389190610a76565b6105b5565b005b610147610638565b61015160006106b6565b565b60008060009054906101000a900473ffffffffffffffffffffffffffffffffffffffff16905090565b6000610186610638565b600073ffffffffffffffffffffffffffffffffffffffff168373ffffffffffffffffffffffffffffffffffffffff16036101f5576040517f08c379a00000000000000000000000000000000000000000000000000000000081526004016101ec90610b26565b60405180910390fd5b600073ffffffffffffffffffffffffffffffffffffffff168473ffffffffffffffffffffffffffffffffffffffff1603610264576040517f08c379a000000000000000000000000000000000000000000000000000000000815260040161025b90610b92565b60405180910390fd5b600082116102a7576040517f08c379a000000000000000000000000000000000000000000000000000000000815260040161029e90610bfe565b60405180910390fd5b6102b1600161077a565b60006102bd6001610790565b90506040518060a001604052808281526020018781526020018673ffffffffffffffffffffffffffffffffffffffff1681526020018573ffffffffffffffffffffffffffffffffffffffff1681526020018481525060026000838152602001908152602001600020600082015181600001556020820151816001015560408201518160020160006101000a81548173ffffffffffffffffffffffffffffffffffffffff021916908373ffffffffffffffffffffffffffffffffffffffff16021790555060608201518160030160006101000a81548173ffffffffffffffffffffffffffffffffffffffff021916908373ffffffffffffffffffffffffffffffffffffffff160217905550608082015181600401559050508373ffffffffffffffffffffffffffffffffffffffff168573ffffffffffffffffffffffffffffffffffffffff16827f11399e74b67a5c8dca1318bfd5cbe817a61b93ac8643688bdb1cde7c2c4437fa8987604051610434929190610c1e565b60405180910390a480915050949350505050565b60026020528060005260406000206000915090508060000154908060010154908060020160009054906101000a900473ffffffffffffffffffffffffffffffffffffffff16908060030160009054906101000a900473ffffffffffffffffffffffffffffffffffffffff16908060040154905085565b6104c66107a6565b600260008381526020019081526020016000206040518060a001604052908160008201548152602001600182015481526020016002820160009054906101000a900473ffffffffffffffffffffffffffffffffffffffff1673ffffffffffffffffffffffffffffffffffffffff1673ffffffffffffffffffffffffffffffffffffffff1681526020016003820160009054906101000a900473ffffffffffffffffffffffffffffffffffffffff1673ffffffffffffffffffffffffffffffffffffffff1673ffffffffffffffffffffffffffffffffffffffff1681526020016004820154815250509050919050565b6105bd610638565b600073ffffffffffffffffffffffffffffffffffffffff168173ffffffffffffffffffffffffffffffffffffffff160361062c576040517f08c379a000000000000000000000000000000000000000000000000000000000815260040161062390610cb9565b60405180910390fd5b610635816106b6565b50565b61064061079e565b73ffffffffffffffffffffffffffffffffffffffff1661065e610153565b73ffffffffffffffffffffffffffffffffffffffff16146106b4576040517f08c379a00000000000000000000000000000000000000000000000000000000081526004016106ab90610d25565b60405180910390fd5b565b60008060009054906101000a900473ffffffffffffffffffffffffffffffffffffffff169050816000806101000a81548173ffffffffffffffffffffffffffffffffffffffff021916908373ffffffffffffffffffffffffffffffffffffffff1602179055508173ffffffffffffffffffffffffffffffffffffffff168173ffffffffffffffffffffffffffffffffffffffff167f8be0079c531659141344cd1fd0a4f28419497f9722a3daafe3b4186f6b6457e060405160405180910390a35050565b6001816000016000828254019250508190555050565b600081600001549050919050565b600033905090565b6040518060a001604052806000815260200160008152602001600073ffffffffffffffffffffffffffffffffffffffff168152602001600073ffffffffffffffffffffffffffffffffffffffff168152602001600081525090565b600073ffffffffffffffffffffffffffffffffffffffff82169050919050565b600061082c82610801565b9050919050565b61083c81610821565b82525050565b60006020820190506108576000830184610833565b92915050565b600080fd5b6000819050919050565b61087581610862565b811461088057600080fd5b50565b6000813590506108928161086c565b92915050565b6108a181610821565b81146108ac57600080fd5b50565b6000813590506108be81610898565b92915050565b600080600080608085870312156108de576108dd61085d565b5b60006108ec87828801610883565b94505060206108fd878288016108af565b935050604061090e878288016108af565b925050606061091f87828801610883565b91505092959194509250565b61093481610862565b82525050565b600060208201905061094f600083018461092b565b92915050565b60006020828403121561096b5761096a61085d565b5b600061097984828501610883565b91505092915050565b600060a082019050610997600083018861092b565b6109a4602083018761092b565b6109b16040830186610833565b6109be6060830185610833565b6109cb608083018461092b565b9695505050505050565b6109de81610862565b82525050565b6109ed81610821565b82525050565b60a082016000820151610a0960008501826109d5565b506020820151610a1c60208501826109d5565b506040820151610a2f60408501826109e4565b506060820151610a4260608501826109e4565b506080820151610a5560808501826109d5565b50505050565b600060a082019050610a7060008301846109f3565b92915050565b600060208284031215610a8c57610a8b61085d565b5b6000610a9a848285016108af565b91505092915050565b600082825260208201905092915050565b7f446972656363696f6e2064656c20636f6d707261646f72206e6f2076616c696460008201527f6100000000000000000000000000000000000000000000000000000000000000602082015250565b6000610b10602183610aa3565b9150610b1b82610ab4565b604082019050919050565b60006020820190508181036000830152610b3f81610b03565b9050919050565b7f446972656363696f6e2064656c2076656e6465646f72206e6f2076616c696461600082015250565b6000610b7c602083610aa3565b9150610b8782610b46565b602082019050919050565b60006020820190508181036000830152610bab81610b6f565b9050919050565b7f456c2070726563696f206465626520736572206d61796f722061206365726f00600082015250565b6000610be8601f83610aa3565b9150610bf382610bb2565b602082019050919050565b60006020820190508181036000830152610c1781610bdb565b9050919050565b6000604082019050610c33600083018561092b565b610c40602083018461092b565b9392505050565b7f4f776e61626c653a206e6577206f776e657220697320746865207a65726f206160008201527f6464726573730000000000000000000000000000000000000000000000000000602082015250565b6000610ca3602683610aa3565b9150610cae82610c47565b604082019050919050565b60006020820190508181036000830152610cd281610c96565b9050919050565b7f4f776e61626c653a2063616c6c6572206973206e6f7420746865206f776e6572600082015250565b6000610d0f602083610aa3565b9150610d1a82610cd9565b602082019050919050565b60006020820190508181036000830152610d3e81610d02565b905091905056fea264697066735822122028048fa72d9719fd2fa8206533e67f3344e13b9da120a223fb9be1fe01473e6864736f6c63430008180033",
  "linkReferences": {},
  "deployedLinkReferences": {}
}