{
  "_format": "hh-sol-artifact-1",
  "contractName": "MaintenanceHistory",
  "sourceName": "src/Contracts/MantenimientHistory.sol",
  "abi": [
    {
      "anonymous": false,
      "inputs": [
        {
          "indexed": true,
          "internalType": "uint256",
          "name": "vehicleId",
          "type": "uint256"
        },
        {
          "indexed": false,
          "internalType": "uint256",
          "name": "date",
          "type": "uint256"
        },
        {
          "indexed": false,
          "internalType": "string",
          "name": "description",
          "type": "string"
        },
        {
          "indexed": false,
          "internalType": "uint256",
          "name": "cost",
          "type": "uint256"
        }
      ],
      "name": "MaintenanceAdded",
      "type": "event"
    },
    {
      "anonymous": false,
      "inputs": [
        {
          "indexed": true,
          "internalType": "address",
          "name": "previousOwner",
          "type": "address"
        },
        {
          "indexed": true,
          "internalType": "address",
          "name": "newOwner",
          "type": "address"
        }
      ],
      "name": "OwnershipTransferred",
      "type": "event"
    },
    {
      "inputs": [
        {
          "internalType": "uint256",
          "name": "vehicleId",
          "type": "uint256"
        },
        {
          "internalType": "string",
          "name": "description",
          "type": "string"
        },
        {
          "internalType": "uint256",
          "name": "cost",
          "type": "uint256"
        }
      ],
      "name": "addMaintenance",
      "outputs": [],
      "stateMutability": "nonpayable",
      "type": "function"
    },
    {
      "inputs": [
        {
          "internalType": "uint256",
          "name": "vehicleId",
          "type": "uint256"
        }
      ],
      "name": "getMaintenanceRecords",
      "outputs": [
        {
          "components": [
            {
              "internalType": "uint256",
              "name": "vehicleId",
              "type": "uint256"
            },
            {
              "internalType": "uint256",
              "name": "date",
              "type": "uint256"
            },
            {
              "internalType": "string",
              "name": "description",
              "type": "string"
            },
            {
              "internalType": "uint256",
              "name": "cost",
              "type": "uint256"
            }
          ],
          "internalType": "struct MaintenanceHistory.MaintenanceRecord[]",
          "name": "",
          "type": "tuple[]"
        }
      ],
      "stateMutability": "view",
      "type": "function"
    },
    {
      "inputs": [
        {
          "internalType": "uint256",
          "name": "",
          "type": "uint256"
        },
        {
          "internalType": "uint256",
          "name": "",
          "type": "uint256"
        }
      ],
      "name": "maintenanceRecords",
      "outputs": [
        {
          "internalType": "uint256",
          "name": "vehicleId",
          "type": "uint256"
        },
        {
          "internalType": "uint256",
          "name": "date",
          "type": "uint256"
        },
        {
          "internalType": "string",
          "name": "description",
          "type": "string"
        },
        {
          "internalType": "uint256",
          "name": "cost",
          "type": "uint256"
        }
      ],
      "stateMutability": "view",
      "type": "function"
    },
    {
      "inputs": [],
      "name": "owner",
      "outputs": [
        {
          "internalType": "address",
          "name": "",
          "type": "address"
        }
      ],
      "stateMutability": "view",
      "type": "function"
    },
    {
      "inputs": [],
      "name": "renounceOwnership",
      "outputs": [],
      "stateMutability": "nonpayable",
      "type": "function"
    },
    {
      "inputs": [
        {
          "internalType": "address",
          "name": "newOwner",
          "type": "address"
        }
      ],
      "name": "transferOwnership",
      "outputs": [],
      "stateMutability": "nonpayable",
      "type": "function"
    }
  ],
  "bytecode": "0x608060405234801561001057600080fd5b5061002d61002261003260201b60201c565b61003a60201b60201c565b6100fe565b600033905090565b60008060009054906101000a900473ffffffffffffffffffffffffffffffffffffffff169050816000806101000a81548173ffffffffffffffffffffffffffffffffffffffff021916908373ffffffffffffffffffffffffffffffffffffffff1602179055508173ffffffffffffffffffffffffffffffffffffffff168173ffffffffffffffffffffffffffffffffffffffff167f8be0079c531659141344cd1fd0a4f28419497f9722a3daafe3b4186f6b6457e060405160405180910390a35050565b610ff28061010d6000396000f3fe608060405234801561001057600080fd5b50600436106100625760003560e01c80630c5131b8146100675780633afd92711461009a578063715018a6146100ca5780638da5cb5b146100d4578063f2fde38b146100f2578063f58d99541461010e575b600080fd5b610081600480360381019061007c9190610651565b61012a565b6040516100919493929190610730565b60405180910390f35b6100b460048036038101906100af919061077c565b6101ff565b6040516100c19190610927565b60405180910390f35b6100d2610321565b005b6100dc610335565b6040516100e9919061098a565b60405180910390f35b61010c600480360381019061010791906109d1565b61035e565b005b61012860048036038101906101239190610b33565b6103e1565b005b6001602052816000526040600020818154811061014657600080fd5b90600052602060002090600402016000915091505080600001549080600101549080600201805461017690610bd1565b80601f01602080910402602001604051908101604052809291908181526020018280546101a290610bd1565b80156101ef5780601f106101c4576101008083540402835291602001916101ef565b820191906000526020600020905b8154815290600101906020018083116101d257829003601f168201915b5050505050908060030154905084565b606060016000838152602001908152602001600020805480602002602001604051908101604052809291908181526020016000905b828210156103165783829060005260206000209060040201604051806080016040529081600082015481526020016001820154815260200160028201805461027b90610bd1565b80601f01602080910402602001604051908101604052809291908181526020018280546102a790610bd1565b80156102f45780601f106102c9576101008083540402835291602001916102f4565b820191906000526020600020905b8154815290600101906020018083116102d757829003601f168201915b5050505050815260200160038201548152505081526020019060010190610234565b505050509050919050565b6103296104bd565b610333600061053b565b565b60008060009054906101000a900473ffffffffffffffffffffffffffffffffffffffff16905090565b6103666104bd565b600073ffffffffffffffffffffffffffffffffffffffff168173ffffffffffffffffffffffffffffffffffffffff16036103d5576040517f08c379a00000000000000000000000000000000000000000000000000000000081526004016103cc90610c74565b60405180910390fd5b6103de8161053b565b50565b6103e96104bd565b6001600084815260200190815260200160002060405180608001604052808581526020014281526020018481526020018381525090806001815401808255809150506001900390600052602060002090600402016000909190919091506000820151816000015560208201518160010155604082015181600201908161046f9190610e40565b50606082015181600301555050827f658e3dc45e22c61abeae3e0a26a228723d4d571a07d27e2cf287aae9651276d04284846040516104b093929190610f12565b60405180910390a2505050565b6104c56105ff565b73ffffffffffffffffffffffffffffffffffffffff166104e3610335565b73ffffffffffffffffffffffffffffffffffffffff1614610539576040517f08c379a000000000000000000000000000000000000000000000000000000000815260040161053090610f9c565b60405180910390fd5b565b60008060009054906101000a900473ffffffffffffffffffffffffffffffffffffffff169050816000806101000a81548173ffffffffffffffffffffffffffffffffffffffff021916908373ffffffffffffffffffffffffffffffffffffffff1602179055508173ffffffffffffffffffffffffffffffffffffffff168173ffffffffffffffffffffffffffffffffffffffff167f8be0079c531659141344cd1fd0a4f28419497f9722a3daafe3b4186f6b6457e060405160405180910390a35050565b600033905090565b6000604051905090565b600080fd5b600080fd5b6000819050919050565b61062e8161061b565b811461063957600080fd5b50565b60008135905061064b81610625565b92915050565b6000806040838503121561066857610667610611565b5b60006106768582860161063c565b92505060206106878582860161063c565b9150509250929050565b61069a8161061b565b82525050565b600081519050919050565b600082825260208201905092915050565b60005b838110156106da5780820151818401526020810190506106bf565b60008484015250505050565b6000601f19601f8301169050919050565b6000610702826106a0565b61070c81856106ab565b935061071c8185602086016106bc565b610725816106e6565b840191505092915050565b60006080820190506107456000830187610691565b6107526020830186610691565b818103604083015261076481856106f7565b90506107736060830184610691565b95945050505050565b60006020828403121561079257610791610611565b5b60006107a08482850161063c565b91505092915050565b600081519050919050565b600082825260208201905092915050565b6000819050602082019050919050565b6107de8161061b565b82525050565b600082825260208201905092915050565b6000610800826106a0565b61080a81856107e4565b935061081a8185602086016106bc565b610823816106e6565b840191505092915050565b600060808301600083015161084660008601826107d5565b50602083015161085960208601826107d5565b506040830151848203604086015261087182826107f5565b915050606083015161088660608601826107d5565b508091505092915050565b600061089d838361082e565b905092915050565b6000602082019050919050565b60006108bd826107a9565b6108c781856107b4565b9350836020820285016108d9856107c5565b8060005b8581101561091557848403895281516108f68582610891565b9450610901836108a5565b925060208a019950506001810190506108dd565b50829750879550505050505092915050565b6000602082019050818103600083015261094181846108b2565b905092915050565b600073ffffffffffffffffffffffffffffffffffffffff82169050919050565b600061097482610949565b9050919050565b61098481610969565b82525050565b600060208201905061099f600083018461097b565b92915050565b6109ae81610969565b81146109b957600080fd5b50565b6000813590506109cb816109a5565b92915050565b6000602082840312156109e7576109e6610611565b5b60006109f5848285016109bc565b91505092915050565b600080fd5b600080fd5b7f4e487b7100000000000000000000000000000000000000000000000000000000600052604160045260246000fd5b610a40826106e6565b810181811067ffffffffffffffff82111715610a5f57610a5e610a08565b5b80604052505050565b6000610a72610607565b9050610a7e8282610a37565b919050565b600067ffffffffffffffff821115610a9e57610a9d610a08565b5b610aa7826106e6565b9050602081019050919050565b82818337600083830152505050565b6000610ad6610ad184610a83565b610a68565b905082815260208101848484011115610af257610af1610a03565b5b610afd848285610ab4565b509392505050565b600082601f830112610b1a57610b196109fe565b5b8135610b2a848260208601610ac3565b91505092915050565b600080600060608486031215610b4c57610b4b610611565b5b6000610b5a8682870161063c565b935050602084013567ffffffffffffffff811115610b7b57610b7a610616565b5b610b8786828701610b05565b9250506040610b988682870161063c565b9150509250925092565b7f4e487b7100000000000000000000000000000000000000000000000000000000600052602260045260246000fd5b60006002820490506001821680610be957607f821691505b602082108103610bfc57610bfb610ba2565b5b50919050565b7f4f776e61626c653a206e6577206f776e657220697320746865207a65726f206160008201527f6464726573730000000000000000000000000000000000000000000000000000602082015250565b6000610c5e6026836106ab565b9150610c6982610c02565b604082019050919050565b60006020820190508181036000830152610c8d81610c51565b9050919050565b60008190508160005260206000209050919050565b60006020601f8301049050919050565b600082821b905092915050565b600060088302610cf67fffffffffffffffffffffffffffffffffffffffffffffffffffffffffffffffff82610cb9565b610d008683610cb9565b95508019841693508086168417925050509392505050565b6000819050919050565b6000610d3d610d38610d338461061b565b610d18565b61061b565b9050919050565b6000819050919050565b610d5783610d22565b610d6b610d6382610d44565b848454610cc6565b825550505050565b600090565b610d80610d73565b610d8b818484610d4e565b505050565b5b81811015610daf57610da4600082610d78565b600181019050610d91565b5050565b601f821115610df457610dc581610c94565b610dce84610ca9565b81016020851015610ddd578190505b610df1610de985610ca9565b830182610d90565b50505b505050565b600082821c905092915050565b6000610e1760001984600802610df9565b1980831691505092915050565b6000610e308383610e06565b9150826002028217905092915050565b610e49826106a0565b67ffffffffffffffff811115610e6257610e61610a08565b5b610e6c8254610bd1565b610e77828285610db3565b600060209050601f831160018114610eaa5760008415610e98578287015190505b610ea28582610e24565b865550610f0a565b601f198416610eb886610c94565b60005b82811015610ee057848901518255600182019150602085019450602081019050610ebb565b86831015610efd5784890151610ef9601f891682610e06565b8355505b6001600288020188555050505b505050505050565b6000606082019050610f276000830186610691565b8181036020830152610f3981856106f7565b9050610f486040830184610691565b949350505050565b7f4f776e61626c653a2063616c6c6572206973206e6f7420746865206f776e6572600082015250565b6000610f866020836106ab565b9150610f9182610f50565b602082019050919050565b60006020820190508181036000830152610fb581610f79565b905091905056fea2646970667358221220e43b02fc05a7b0c92fb197d0c51397f4d261d7967be8fc3e8da7703e93fbcd8164736f6c63430008180033",
  "linkReferences": {},
  "deployedLinkReferences": {}
}