{
  "_format": "hh-sol-artifact-1",
  "contractName": "VehicleRegistry",
  "sourceName": "src/Contracts/RegisterVehicule.sol",
  "abi": [
    {
      "inputs": [
        {
          "internalType": "address",
          "name": "nftAddress",
          "type": "address"
        }
      ],
      "stateMutability": "nonpayable",
      "type": "constructor"
    },
    {
      "anonymous": false,
      "inputs": [
        {
          "indexed": true,
          "internalType": "address",
          "name": "previousOwner",
          "type": "address"
        },
        {
          "indexed": true,
          "internalType": "address",
          "name": "newOwner",
          "type": "address"
        }
      ],
      "name": "OwnershipTransferred",
      "type": "event"
    },
    {
      "anonymous": false,
      "inputs": [
        {
          "indexed": true,
          "internalType": "uint256",
          "name": "vehicleId",
          "type": "uint256"
        },
        {
          "indexed": false,
          "internalType": "uint256",
          "name": "tokenId",
          "type": "uint256"
        },
        {
          "indexed": true,
          "internalType": "address",
          "name": "owner",
          "type": "address"
        }
      ],
      "name": "VehicleRegistered",
      "type": "event"
    },
    {
      "anonymous": false,
      "inputs": [
        {
          "indexed": true,
          "internalType": "uint256",
          "name": "vehicleId",
          "type": "uint256"
        },
        {
          "indexed": true,
          "internalType": "address",
          "name": "newOwner",
          "type": "address"
        }
      ],
      "name": "VehicleTransferred",
      "type": "event"
    },
    {
      "inputs": [
        {
          "internalType": "uint256",
          "name": "vehicleId",
          "type": "uint256"
        }
      ],
      "name": "getVehicle",
      "outputs": [
        {
          "components": [
            {
              "internalType": "uint256",
              "name": "tokenId",
              "type": "uint256"
            },
            {
              "internalType": "string",
              "name": "marca",
              "type": "string"
            },
            {
              "internalType": "string",
              "name": "modelo",
              "type": "string"
            },
            {
              "internalType": "uint256",
              "name": "year",
              "type": "uint256"
            },
            {
              "internalType": "string",
              "name": "vin",
              "type": "string"
            },
            {
              "internalType": "address",
              "name": "currentOwner",
              "type": "address"
            }
          ],
          "internalType": "struct VehicleRegistry.Vehicle",
          "name": "",
          "type": "tuple"
        }
      ],
      "stateMutability": "view",
      "type": "function"
    },
    {
      "inputs": [],
      "name": "owner",
      "outputs": [
        {
          "internalType": "address",
          "name": "",
          "type": "address"
        }
      ],
      "stateMutability": "view",
      "type": "function"
    },
    {
      "inputs": [
        {
          "internalType": "string",
          "name": "marca",
          "type": "string"
        },
        {
          "internalType": "string",
          "name": "modelo",
          "type": "string"
        },
        {
          "internalType": "uint256",
          "name": "year",
          "type": "uint256"
        },
        {
          "internalType": "string",
          "name": "vin",
          "type": "string"
        },
        {
          "internalType": "string",
          "name": "tokenURI",
          "type": "string"
        }
      ],
      "name": "registerVehicle",
      "outputs": [
        {
          "internalType": "uint256",
          "name": "",
          "type": "uint256"
        }
      ],
      "stateMutability": "nonpayable",
      "type": "function"
    },
    {
      "inputs": [],
      "name": "renounceOwnership",
      "outputs": [],
      "stateMutability": "nonpayable",
      "type": "function"
    },
    {
      "inputs": [
        {
          "internalType": "address",
          "name": "newOwner",
          "type": "address"
        }
      ],
      "name": "transferOwnership",
      "outputs": [],
      "stateMutability": "nonpayable",
      "type": "function"
    },
    {
      "inputs": [
        {
          "internalType": "uint256",
          "name": "vehicleId",
          "type": "uint256"
        },
        {
          "internalType": "address",
          "name": "newOwner",
          "type": "address"
        }
      ],
      "name": "transferVehicle",
      "outputs": [],
      "stateMutability": "nonpayable",
      "type": "function"
    },
    {
      "inputs": [],
      "name": "vehicleCount",
      "outputs": [
        {
          "internalType": "uint256",
          "name": "",
          "type": "uint256"
        }
      ],
      "stateMutability": "view",
      "type": "function"
    },
    {
      "inputs": [
        {
          "internalType": "uint256",
          "name": "",
          "type": "uint256"
        }
      ],
      "name": "vehicles",
      "outputs": [
        {
          "internalType": "uint256",
          "name": "tokenId",
          "type": "uint256"
        },
        {
          "internalType": "string",
          "name": "marca",
          "type": "string"
        },
        {
          "internalType": "string",
          "name": "modelo",
          "type": "string"
        },
        {
          "internalType": "uint256",
          "name": "year",
          "type": "uint256"
        },
        {
          "internalType": "string",
          "name": "vin",
          "type": "string"
        },
        {
          "internalType": "address",
          "name": "currentOwner",
          "type": "address"
        }
      ],
      "stateMutability": "view",
      "type": "function"
    }
  ],
  "bytecode": "0x60806040523480156200001157600080fd5b5060405162001aaf38038062001aaf8339818101604052810190620000379190620001d5565b620000576200004b6200009f60201b60201c565b620000a760201b60201c565b80600160006101000a81548173ffffffffffffffffffffffffffffffffffffffff021916908373ffffffffffffffffffffffffffffffffffffffff1602179055505062000207565b600033905090565b60008060009054906101000a900473ffffffffffffffffffffffffffffffffffffffff169050816000806101000a81548173ffffffffffffffffffffffffffffffffffffffff021916908373ffffffffffffffffffffffffffffffffffffffff1602179055508173ffffffffffffffffffffffffffffffffffffffff168173ffffffffffffffffffffffffffffffffffffffff167f8be0079c531659141344cd1fd0a4f28419497f9722a3daafe3b4186f6b6457e060405160405180910390a35050565b600080fd5b600073ffffffffffffffffffffffffffffffffffffffff82169050919050565b60006200019d8262000170565b9050919050565b620001af8162000190565b8114620001bb57600080fd5b50565b600081519050620001cf81620001a4565b92915050565b600060208284031215620001ee57620001ed6200016b565b5b6000620001fe84828501620001be565b91505092915050565b61189880620002176000396000f3fe608060405234801561001057600080fd5b50600436106100885760003560e01c8063997049371161005b5780639970493714610101578063b8ba95fa1461011f578063df7ebb7b14610154578063f2fde38b1461018457610088565b806306687d801461008d578063715018a6146100bd57806375c0ad2b146100c75780638da5cb5b146100e3575b600080fd5b6100a760048036038101906100a29190610e1b565b6101a0565b6040516100b49190610f15565b60405180910390f35b6100c56103b5565b005b6100e160048036038101906100dc9190610f8e565b6103c9565b005b6100eb610602565b6040516100f89190610fdd565b60405180910390f35b61010961062b565b6040516101169190610f15565b60405180910390f35b61013960048036038101906101349190610ff8565b610631565b60405161014b969594939291906110a4565b60405180910390f35b61016e60048036038101906101699190610ff8565b610825565b60405161017b9190611219565b60405180910390f35b61019e6004803603810190610199919061123b565b610a72565b005b600080600160009054906101000a900473ffffffffffffffffffffffffffffffffffffffff1673ffffffffffffffffffffffffffffffffffffffff1663eacabe1433856040518363ffffffff1660e01b8152600401610200929190611268565b6020604051808303816000875af115801561021f573d6000803e3d6000fd5b505050506040513d601f19601f8201168201806040525081019061024391906112ad565b90506003600081548092919061025890611309565b91905055506040518060c001604052808281526020018881526020018781526020018681526020018581526020013373ffffffffffffffffffffffffffffffffffffffff168152506002600060035481526020019081526020016000206000820151816000015560208201518160010190816102d4919061155d565b5060408201518160020190816102ea919061155d565b5060608201518160030155608082015181600401908161030a919061155d565b5060a08201518160050160006101000a81548173ffffffffffffffffffffffffffffffffffffffff021916908373ffffffffffffffffffffffffffffffffffffffff1602179055509050503373ffffffffffffffffffffffffffffffffffffffff166003547fb86031080b1372cc17e2b4efd88bfa62522a4732c99b71b25878c76562f500b98360405161039e9190610f15565b60405180910390a360035491505095945050505050565b6103bd610af5565b6103c76000610b73565b565b60006002600084815260200190815260200160002090508060050160009054906101000a900473ffffffffffffffffffffffffffffffffffffffff1673ffffffffffffffffffffffffffffffffffffffff163373ffffffffffffffffffffffffffffffffffffffff1614610472576040517f08c379a0000000000000000000000000000000000000000000000000000000008152600401610469906116a1565b60405180910390fd5b600073ffffffffffffffffffffffffffffffffffffffff168273ffffffffffffffffffffffffffffffffffffffff16036104e1576040517f08c379a00000000000000000000000000000000000000000000000000000000081526004016104d89061170d565b60405180910390fd5b600160009054906101000a900473ffffffffffffffffffffffffffffffffffffffff1673ffffffffffffffffffffffffffffffffffffffff166342842e0e338484600001546040518463ffffffff1660e01b81526004016105449392919061172d565b600060405180830381600087803b15801561055e57600080fd5b505af1158015610572573d6000803e3d6000fd5b50505050818160050160006101000a81548173ffffffffffffffffffffffffffffffffffffffff021916908373ffffffffffffffffffffffffffffffffffffffff1602179055508173ffffffffffffffffffffffffffffffffffffffff16837fac00cc545e9550a69f52b1de7ab6fecd7bf05df9dda928f5c2f02f54bfe0a6f360405160405180910390a3505050565b60008060009054906101000a900473ffffffffffffffffffffffffffffffffffffffff16905090565b60035481565b600260205280600052604060002060009150905080600001549080600101805461065a90611380565b80601f016020809104026020016040519081016040528092919081815260200182805461068690611380565b80156106d35780601f106106a8576101008083540402835291602001916106d3565b820191906000526020600020905b8154815290600101906020018083116106b657829003601f168201915b5050505050908060020180546106e890611380565b80601f016020809104026020016040519081016040528092919081815260200182805461071490611380565b80156107615780601f1061073657610100808354040283529160200191610761565b820191906000526020600020905b81548152906001019060200180831161074457829003601f168201915b50505050509080600301549080600401805461077c90611380565b80601f01602080910402602001604051908101604052809291908181526020018280546107a890611380565b80156107f55780601f106107ca576101008083540402835291602001916107f5565b820191906000526020600020905b8154815290600101906020018083116107d857829003601f168201915b5050505050908060050160009054906101000a900473ffffffffffffffffffffffffffffffffffffffff16905086565b61082d610c3f565b600260008381526020019081526020016000206040518060c00160405290816000820154815260200160018201805461086590611380565b80601f016020809104026020016040519081016040528092919081815260200182805461089190611380565b80156108de5780601f106108b3576101008083540402835291602001916108de565b820191906000526020600020905b8154815290600101906020018083116108c157829003601f168201915b505050505081526020016002820180546108f790611380565b80601f016020809104026020016040519081016040528092919081815260200182805461092390611380565b80156109705780601f1061094557610100808354040283529160200191610970565b820191906000526020600020905b81548152906001019060200180831161095357829003601f168201915b505050505081526020016003820154815260200160048201805461099390611380565b80601f01602080910402602001604051908101604052809291908181526020018280546109bf90611380565b8015610a0c5780601f106109e157610100808354040283529160200191610a0c565b820191906000526020600020905b8154815290600101906020018083116109ef57829003601f168201915b505050505081526020016005820160009054906101000a900473ffffffffffffffffffffffffffffffffffffffff1673ffffffffffffffffffffffffffffffffffffffff1673ffffffffffffffffffffffffffffffffffffffff16815250509050919050565b610a7a610af5565b600073ffffffffffffffffffffffffffffffffffffffff168173ffffffffffffffffffffffffffffffffffffffff1603610ae9576040517f08c379a0000000000000000000000000000000000000000000000000000000008152600401610ae0906117d6565b60405180910390fd5b610af281610b73565b50565b610afd610c37565b73ffffffffffffffffffffffffffffffffffffffff16610b1b610602565b73ffffffffffffffffffffffffffffffffffffffff1614610b71576040517f08c379a0000000000000000000000000000000000000000000000000000000008152600401610b6890611842565b60405180910390fd5b565b60008060009054906101000a900473ffffffffffffffffffffffffffffffffffffffff169050816000806101000a81548173ffffffffffffffffffffffffffffffffffffffff021916908373ffffffffffffffffffffffffffffffffffffffff1602179055508173ffffffffffffffffffffffffffffffffffffffff168173ffffffffffffffffffffffffffffffffffffffff167f8be0079c531659141344cd1fd0a4f28419497f9722a3daafe3b4186f6b6457e060405160405180910390a35050565b600033905090565b6040518060c001604052806000815260200160608152602001606081526020016000815260200160608152602001600073ffffffffffffffffffffffffffffffffffffffff1681525090565b6000604051905090565b600080fd5b600080fd5b600080fd5b600080fd5b6000601f19601f8301169050919050565b7f4e487b7100000000000000000000000000000000000000000000000000000000600052604160045260246000fd5b610cf282610ca9565b810181811067ffffffffffffffff82111715610d1157610d10610cba565b5b80604052505050565b6000610d24610c8b565b9050610d308282610ce9565b919050565b600067ffffffffffffffff821115610d5057610d4f610cba565b5b610d5982610ca9565b9050602081019050919050565b82818337600083830152505050565b6000610d88610d8384610d35565b610d1a565b905082815260208101848484011115610da457610da3610ca4565b5b610daf848285610d66565b509392505050565b600082601f830112610dcc57610dcb610c9f565b5b8135610ddc848260208601610d75565b91505092915050565b6000819050919050565b610df881610de5565b8114610e0357600080fd5b50565b600081359050610e1581610def565b92915050565b600080600080600060a08688031215610e3757610e36610c95565b5b600086013567ffffffffffffffff811115610e5557610e54610c9a565b5b610e6188828901610db7565b955050602086013567ffffffffffffffff811115610e8257610e81610c9a565b5b610e8e88828901610db7565b9450506040610e9f88828901610e06565b935050606086013567ffffffffffffffff811115610ec057610ebf610c9a565b5b610ecc88828901610db7565b925050608086013567ffffffffffffffff811115610eed57610eec610c9a565b5b610ef988828901610db7565b9150509295509295909350565b610f0f81610de5565b82525050565b6000602082019050610f2a6000830184610f06565b92915050565b600073ffffffffffffffffffffffffffffffffffffffff82169050919050565b6000610f5b82610f30565b9050919050565b610f6b81610f50565b8114610f7657600080fd5b50565b600081359050610f8881610f62565b92915050565b60008060408385031215610fa557610fa4610c95565b5b6000610fb385828601610e06565b9250506020610fc485828601610f79565b9150509250929050565b610fd781610f50565b82525050565b6000602082019050610ff26000830184610fce565b92915050565b60006020828403121561100e5761100d610c95565b5b600061101c84828501610e06565b91505092915050565b600081519050919050565b600082825260208201905092915050565b60005b8381101561105f578082015181840152602081019050611044565b60008484015250505050565b600061107682611025565b6110808185611030565b9350611090818560208601611041565b61109981610ca9565b840191505092915050565b600060c0820190506110b96000830189610f06565b81810360208301526110cb818861106b565b905081810360408301526110df818761106b565b90506110ee6060830186610f06565b8181036080830152611100818561106b565b905061110f60a0830184610fce565b979650505050505050565b61112381610de5565b82525050565b600082825260208201905092915050565b600061114582611025565b61114f8185611129565b935061115f818560208601611041565b61116881610ca9565b840191505092915050565b61117c81610f50565b82525050565b600060c08301600083015161119a600086018261111a565b50602083015184820360208601526111b2828261113a565b915050604083015184820360408601526111cc828261113a565b91505060608301516111e1606086018261111a565b50608083015184820360808601526111f9828261113a565b91505060a083015161120e60a0860182611173565b508091505092915050565b600060208201905081810360008301526112338184611182565b905092915050565b60006020828403121561125157611250610c95565b5b600061125f84828501610f79565b91505092915050565b600060408201905061127d6000830185610fce565b818103602083015261128f818461106b565b90509392505050565b6000815190506112a781610def565b92915050565b6000602082840312156112c3576112c2610c95565b5b60006112d184828501611298565b91505092915050565b7f4e487b7100000000000000000000000000000000000000000000000000000000600052601160045260246000fd5b600061131482610de5565b91507fffffffffffffffffffffffffffffffffffffffffffffffffffffffffffffffff8203611346576113456112da565b5b600182019050919050565b7f4e487b7100000000000000000000000000000000000000000000000000000000600052602260045260246000fd5b6000600282049050600182168061139857607f821691505b6020821081036113ab576113aa611351565b5b50919050565b60008190508160005260206000209050919050565b60006020601f8301049050919050565b600082821b905092915050565b6000600883026114137fffffffffffffffffffffffffffffffffffffffffffffffffffffffffffffffff826113d6565b61141d86836113d6565b95508019841693508086168417925050509392505050565b6000819050919050565b600061145a61145561145084610de5565b611435565b610de5565b9050919050565b6000819050919050565b6114748361143f565b61148861148082611461565b8484546113e3565b825550505050565b600090565b61149d611490565b6114a881848461146b565b505050565b5b818110156114cc576114c1600082611495565b6001810190506114ae565b5050565b601f821115611511576114e2816113b1565b6114eb846113c6565b810160208510156114fa578190505b61150e611506856113c6565b8301826114ad565b50505b505050565b600082821c905092915050565b600061153460001984600802611516565b1980831691505092915050565b600061154d8383611523565b9150826002028217905092915050565b61156682611025565b67ffffffffffffffff81111561157f5761157e610cba565b5b6115898254611380565b6115948282856114d0565b600060209050601f8311600181146115c757600084156115b5578287015190505b6115bf8582611541565b865550611627565b601f1984166115d5866113b1565b60005b828110156115fd578489015182556001820191506020850194506020810190506115d8565b8683101561161a5784890151611616601f891682611523565b8355505b6001600288020188555050505b505050505050565b7f4e6f206572657320656c2070726f706965746172696f2061637475616c20646560008201527f6c207665686963756c6f00000000000000000000000000000000000000000000602082015250565b600061168b602a83611030565b91506116968261162f565b604082019050919050565b600060208201905081810360008301526116ba8161167e565b9050919050565b7f4e7565766120646972656363696f6e206e6f2076616c69646100000000000000600082015250565b60006116f7601983611030565b9150611702826116c1565b602082019050919050565b60006020820190508181036000830152611726816116ea565b9050919050565b60006060820190506117426000830186610fce565b61174f6020830185610fce565b61175c6040830184610f06565b949350505050565b7f4f776e61626c653a206e6577206f776e657220697320746865207a65726f206160008201527f6464726573730000000000000000000000000000000000000000000000000000602082015250565b60006117c0602683611030565b91506117cb82611764565b604082019050919050565b600060208201905081810360008301526117ef816117b3565b9050919050565b7f4f776e61626c653a2063616c6c6572206973206e6f7420746865206f776e6572600082015250565b600061182c602083611030565b9150611837826117f6565b602082019050919050565b6000602082019050818103600083015261185b8161181f565b905091905056fea2646970667358221220d124d74d7ccfd89bbba395f02d6096b1161b4ce506eb4b2215cac03fcf37d46a64736f6c63430008180033",
  "linkReferences": {},
  "deployedLinkReferences": {}
}